:1000000000000320D1010000F96A0000B16A00007D
:10001000B16A0000B16A0000B16A0000B16A000074
:10002000B16A0000B16A0000B16A0000F96A00001C
:10003000F96A0000B16A0000B1820000B5830000D7
:10004000F96A0000F96A0000F96A0000F96A000024
:10005000F96A0000F96A0000F96A0000F96A000014
:10006000F96A0000F96A0000F96A0000F96A000004
:10007000F96A0000F96A0000F96A0000F96A0000F4
:10008000F96A0000F96A0000F96A0000F96A0000E4
:10009000F96A0000F96A0000F96A0000F96A0000D4
:1000A0005967000065670000F96A0000F96A0000FE
:1000B000F96A0000F96A0000F96A00004D8E00003C
:1000C000F96A0000798F0000F96A0000A59000002D
:1000D000F96A00009D910000F96A0000F96A0000C9
:1000E000F96A0000F96A0000F96A0000F96A000084
:1000F000F96A0000F96A0000F96A0000F96A000074
:10010000F96A0000F96A0000F96A0000F96A000063
:10011000F96A0000C5740000F96A0000F96A00007D
:10012000F96A0000F96A0000F96A0000F96A000043
:10013000F96A0000F96A0000F96A0000F96A000033
:10014000F96A0000F96A000095920000F96A00005F
:10015000F96A0000F96A0000F96A0000F96A000013
:10016000F96A0000F96A000071670000F96A00008E
:10017000F96A0000F96A0000F96A0000F96A0000F3
:10018000F96A000049570000F96A0000F96A0000A6
:10019000F96A0000F96A00008D930000F96A000016
:1001A000F96A0000F96A0000F96A0000F96A0000C3
:1001B000F96A0000F96A0000F96A0000F96A0000B3
:1001C000F96A0000F96A0000F96A0000F96A0000A3
:1001D0005C4B4CF2205210B51A804DF628121A8052
:1001E00000BF00BF06F08CFC574B4FF030621A6026
:1001F000564A9A60564ADA60564B4FF470021A60BB
:10020000554B564A1A60564A136813F4807304D14A
:1002100054490B604FF4A8531360534B1A781107DD
:1002200003D51A7842F008021A70504B5049AA229E
:100230001A70504A504B8B4204D252F8040F43F8C4
:10024000040BF8E74D4B4E4900228B4202D243F893
:10025000042BFAE74B494C4A002352F8230041F89B
:1002600023000133742BF8D1484B494A802103F80D
:10027000011B9342FBD1474B424A1A60464B8A22EC
:100280001A70A3F5805324225A70A0221A709A790A
:100290009207FCD59A79D406FCD4404A937903F0AE
:1002A0000C03082BFAD13E4B60221A7002331A78E5
:1002B000802AFCD1394B01221A715D225A719A7938
:1002C0009006FCD59979354A4906FBD5354B364918
:1002D00019600021596020231370937903F00C03F7
:1002E0000C2BFAD1314B324A1A60324B324A1A6027
:1002F00000225A60072243F8042C304AC3F80C2D20
:1003000062B606F071FF174B1B68DA0705D52C485B
:1003100006F028FD2B4B2C4A1A602C4B1B785B06F1
:1003200009D5284C284B22689A4204D1244806F06B
:1003300019FD002323600DF003FA06F0E7FB08F037
:1003400041F8FEE70E20054030800440823F040063
:100350000100002B88ED00E0002008E0030000858C
:1003600010D0034014D0034002D0074000E0074003
:10037000B815FF1F8C5401003007FF1FB815FF1F71
:10038000EC22FF1F0002FF1F0000000000E400E05D
:1003900064E400E008ED00E0005006400040064044
:1003A00001E007404480044000000602048004404D
:1003B000C010070014E000E01FBF02000000202072
:1003C0003477945A1CE00340A5C3945A00F00740C8
:1003D000FFFFFFFFFFFFFFFFFFFFFFFFFFFFFFFF2D
:1003E000FFFFFFFFFFFFFFFFFFFFFFFFFFFFFFFF1D
:1003F000FFFFFFFFFFFFFFFFFFFFFFFFFFFFFFFF0D
:10040000FFFFFFFFFFFFFFFFFFFFFFFFDEF9FFFF23
:1004100010B5054C237833B9044B13B10448AFF33E
:1004200000800123237010BDB815FF1F00000000DD
:1004300088540100084B10B51BB108490848AFF3B8
:1004400000800848036803B910BD074B002BFBD0A0
:10045000BDE81040184700BF00000000BC15FF1F9A
:1004600088540100B815FF1F0000000010B50420DB
:1004700006F030FE0446052006F02CFE044A136CFC
:1004800084420CBF03F1FF330133136410BD00BF7E
:10049000981DFF1F38B5044608460D460EF0F0F9CA
:1004A0002368024629465B68204698470546204651
:1004B00007F0B8FF284438BD08B501210D2006F02B
:1004C00017FE01210D2006F0FFFD4FF47A7006F0B3
:1004D00039FE4FF47A7006F035FE2221164807F0F7
:1004E00081FD164807F09EFF07F002FD0028FBDDA6
:1004F00007F0C2FC7328F7D1114802F037FF10480B
:1005000002F088FD0F4801F09DFD0D4803F03AF917
:1005100001210D4801F054F90C4802F025F903229D
:100520000B49042006F0A2FB084802F03DF90448FC
:10053000BDE8084002F01CBEE4370100580BFF1F65
:100540001008FF1F9018FF1FD415FF1F981DFF1FD5
:100550006D040000F0B52DED068BDFED6B9A60EEBB
:10056000297A87B017EE900ACDED021AB0EE408AD4
:100570008DED051AB0EE609A0CF05EFA41EC100BAE
:1005800041EC1A0B09F090FCC8EE297A57EC106B7D
:1005900017EE900A0CF050FA41EC100B09F084FCB5
:1005A0009DED051A53EC102B11EE100ACDE9002336
:1005B0000CF042FADDE900230CF092FA41EC100B4A
:1005C00008F0A6FF55EC104BB0EE4A0AF0EE6A0AAE
:1005D00009F06AFC32463B4600204C498DED000B89
:1005E0000CF0A8FB22462B460CF07AFA0CF070FDBA
:1005F0000CF022FA9DED000B53EC102B0CF070FA6E
:1006000041EC100B09F040F909F02AFADDED021A6D
:1006100053EC102B11EE900ACDE900230CF00CFAEC
:10062000F7EE007A87EE887A04460D4617EE100A38
:100630000CF002FADDE900230CF052FA02460B46F8
:10064000204629460CF098F80CF042FD07EE100AFF
:10065000F8EE007A37EE499A68EE277A67EE897AE3
:1006600017EE900A0CF0E8F941EC100B09F074F960
:10067000002053EC102B26490CF07EF80CF028FDDE
:10068000DFED247A08EE900A28EE097AF4EE678A04
:10069000F1EE10FA17EE100A48BFF0EE678A0CF080
:1006A000CBF941EC100B09F057F9C9EE887A55ECFB
:1006B000104B17EE900A0CF0BFF941EC100B09F04B
:1006C000F3FB53EC102B18EE900ACDE902230CF04B
:1006D000B3F941EC100B09F0E7FBDDE902232046FA
:1006E00029468DED000B0CF0FBF99DED000B53EC52
:1006F000102B0CF0F5F90CF0EBFC00EE100A07B033
:10070000BDEC068BF0BD00BFC3F51C410000F0BF7F
:100710000000F03F0000000010B52A4CD4ED0B7A29
:1007200094ED0E7AF8EEE77AF8EE006A77EEC07A8A
:1007300027EE267A2DED028B67EE877A82B017EED0
:10074000900AB0EE408AF0EE608A0CF075F9002253
:100750001D4BCDE900010CF049FC9DED000B08B1EB
:1007600009F0FAF894ED0C1A164BB8EEC11AB4EE73
:10077000E81AF1EE10FA0FDC08D8D3ED0B7AF8EE98
:10078000E77AB4EEE78AF1EE10FA16D49FED0F0A7D
:1007900002B0BDEC028B10BDD3ED0B1A9FED0B1A0E
:1007A00093ED0E0AF8EEE11AF0EE480A02B0BDEC45
:1007B000028BBDE81040FFF7CDBED3ED0D1A93EDCF
:1007C000100AEFE7E81DFF1F002886400000000028
:1007D0002DE9F04F2DED028B074693B0894667480F
:1007E000DFF8AC81DFF8B4A1DFED658A082107F0FE
:1007F000F9FB644807F016FE634802F0B7FDC346F4
:1008000007F076FBB0B12C21604807F0EBFB5D48A8
:1008100007F008FE5C4802F0A9FD172006F05AFC1C
:10082000002879D15A4802F0ADF813B0BDEC028B24
:10083000BDE8F08F08AE31463A46564801F0C2FA9C
:100840000028E0D0DDED090A9DED080AFFF764FFFE
:100850004F48B0EE408AF0EE400A9DED090A01F0E3
:10086000D3FFB9F1000F65D0DDED0A7AF5EEC07A5D
:10087000F1EE10FA28D4B8F93810454802F092F891
:100880000DAD0FCD02AC07970FC40BAB93E803007F
:100890002B6823608DE803003E4896E80E0001F0C7
:1008A000F5FA39463C488AED008A01F06BFCDDED33
:1008B0000A7AF5EEC07AF1EE10FA19D4B8F93810C8
:1008C000334802F06FF89BE7DDED087AF4EEE87A42
:1008D000F1EE10FACFDDDDED097AF5EEC07AF1EE3A
:1008E00010FAC8DDBBF93C10294802F05BF8C7E7F5
:1008F000DDED087AF4EEE87AF1EE10FADEDDDDEDFA
:10090000097AF5EEC07AF1EE10FAD7DDB8F93C10AD
:100910001F4802F047F873E707F0EAFA0446002898
:1009200080D10F2006F00EFC21464622184801F027
:10093000ABFF72E705B22946154802F033F80DF116
:10094000340EBEE80F0002AC07970FC40BAB93E860
:100950000300DEF8003023608DE803000D4896E8C0
:100960000E0001F093FA39460B488AED008A01F037
:1009700009FC2946064802F015F841E7083801004D
:1009800000001643580BFF1F1008FF1F143801000A
:10099000981DFF1FD415FF1F9018FF1F841DFF1FF8
:1009A000F0B58BB007F0A4FA00282BDD07F064FA4D
:1009B0004138122800F2DC80DFE810F03B004900EB
:1009C00057006500DA006900DA00DA009700DA0003
:1009D000DA00DA00AA00DA00B800C200DA00D300B8
:1009E000260001230B739DF80730792B00F0DA8085
:1009F0006E2B00F030811421AC4807F0F3FAAC48BC
:100A000007F010FD0BB0F0BDAA4801F01BFB002160
:100A1000A94800F0D5FEA94802F0B4FEA84801F0AC
:100A2000C3FEA64802F0A2FCA44802F0A1FB0BB052
:100A3000F0BD2421A34807F0D5FA9D4807F0F2FC49
:100A40009E4802F093FC9C4801F02EF8E9E7312122
:100A50009D4807F0C7FA964807F0E4FC974802F073
:100A600085FC954800F0F2FFDBE71F21974807F06F
:100A7000B9FA8F4807F0D6FC904802F077FC8E4810
:100A800001F064F8CDE78E4801F08EFEC9E78B488F
:100A900002F06CFC26218E4807F0A4FA844807F087
:100AA000C1FC28218B4807F09DFA814807F0BAFC69
:100AB000824802F05BFC07F01BFA0028FBDD864C45
:100AC0007B4E23680393039D06E023680293029BF9
:100AD000B2685B1B934284D201210DF1070007F03D
:100AE00015FA73490028F0D07DE70E217B4807F006
:100AF00079FA6F4807F096FC4B220021704801F00C
:100B0000C3FEFA2006F01EFB6D4801F03BFF88E7AC
:100B10006A4802F02BFC1E21714807F063FA644812
:100B200007F080FC664802F013F97AE70F216D4860
:100B300007F058FA5E4807F075FC4B220121DDE70B
:100B40000A21694807F04EFA594807F06BFC5B48E8
:100B500002F00CFC5A4801F057FF594801F012FF0F
:100B60005FE7564802F002FC544803F08DF858E75E
:100B700020215E4807F036FA4D4807F053FC9DF8F7
:100B8000070007F0B3FA4A4807F04CFC06A83621E4
:100B900007F01AFF06A9474801F0DAFB06A807F09C
:100BA000A1FE3EE70121434801F020FD012733214A
:100BB0004F4807F017FA3E4807F034FC3F4802F070
:100BC000D5FB07F095F90028FBDD23680593059E0A
:100BD000374D06E023680493049BAA689B1B93424D
:100BE0004DD201210DF1070007F090F9304900289E
:100BF000F0D09DF80730792B44D06E2B7FF4FBAEFC
:100C000000243C4B1B7863B33B4B1B784BB33B4BF3
:100C10001B7833B33A4B1B783BB31521394807F0A7
:100C2000E1F9234807F0FEFB002F34D13649204874
:100C3000FFF730FC204801F087F98CB333491C489A
:100C4000FFF728FC4FF4FA6006F07CFA214638469C
:100C5000FFF7BEFDE5E60021164801F0C7FC0027BE
:100C6000A5E717B1264B1B7873B94121284807F037
:100C7000B9F90F4807F0D6FB06A8302188E7012311
:100C80000B73B6E70124BCE715211E4807F0AAF94B
:100C9000074807F0C7FB1F490548FFF7FBFBCCE7F8
:100CA0001D490348FFF7F6FBCCE700BF60390100A0
:100CB000580BFF1F9018FF1FD415FF1F1008FF1FB0
:100CC000981DFF1F90380100D838010070380100CE
:100CD0000C39010034390100801EFF1F503801001B
:100CE000B83801006038010044380100583A01006A
:100CF00078390100E21DFF1FE31DFF1FE41DFF1FE8
:100D0000E11DFF1FF0390100083A0100283A0100F7
:100D1000AC390100183A0100403A010005F0C8BDA5
:100D2000FF22027342738273C273704790F90F30CF
:100D30005A1C27D02DE9F04105464FB20726002462
:100D40004FF0010801E095F90F30D8B2002106F00C
:100D5000BBF908FA06F13940C9B2687B06F0B4F96C
:100D60000121E87B06F0B0F9A87B06F0B3F9640036
:100D7000E4B2013E08B144F00104731CE3D1204603
:100D8000BDE8F081054B1A684FF00043D362516310
:100D9000D36A002BFCDA906BC0B270471408FF1FB7
:100DA000F8B5044690F90C00431C154637D094F969
:100DB0000F3001330E4649D0C0B2002106F084F94D
:100DC00006F07F012046FFF7B1FF29462046FFF7D6
:100DD000ADFF0121207B06F077F994F90F30013344
:100DE00000D0F8BD364BDA7A1146002AF9D0D50783
:100DF00003D53449D86908601146940703D5324AAF
:100E0000196A1160D97A480703D5304A596A1160C6
:100E1000D97A0A07E5D52E4A9B6A1360F8BD237874
:100E20002C4C5B000126204684F83B3084F85E6041
:100E300084F85D6005F088F92946204605F084F9BC
:100E400031462046BDE8F84005F0EABA1C4BDA7A94
:100E5000002A26D072B6D97ACF070A4606D51E4F89
:100E6000DA6838681040D8610A463860880706D5C5
:100E70001A491A69086802401A620A60DA7A510748
:100E800006D517495A69086802405A620A60DA7A38
:100E9000170705D513499A69086802409A620A60E3
:100EA00062B61B68104AD968914206D00F4F1048AD
:100EB00010491F60DA601861196094F90C007BE733
:100EC0001408FF1F00E100E004E100E008E100E099
:100ED0000CE100E0C008FF1F80E100E084E100E0D9
:100EE00088E100E08CE100E00650003801403F005E
:100EF0000650007800003F8070B5044690F90C0061
:100F0000431C3AD094F90F3001330D4658D0C0B28B
:100F1000002106F0D9F845F080012046FFF706FFD2
:100F200000212046FFF702FF01210546207B06F045
:100F3000CBF894F90F30013301D0284670BD3E4BF9
:100F4000DA7A1146002AF8D0D60703D53B49D8698A
:100F500008601146940703D5394A196A1160D97A95
:100F6000480703D5374A596A1160D97A0A07E4D588
:100F7000354A9B6A1360284670BD344E237801259C
:100F80005B00304686F83B3086F85E5086F85D5050
:100F900005F0DAF82946304605F042FA2B462A4693
:100FA0002178304605F0C6FA96F8383096F83920A0
:100FB0009A423FD9F2182B4486F83830157EBCE7A8
:100FC0001D4BDA7A002A26D072B6D97ACE070A46A5
:100FD00006D51F4EDA6830681040D8610A46306086
:100FE000880706D51B491A69086802401A620A6018
:100FF000DA7A510706D518495A69086802405A62D8
:101000000A60DA7A120705D514499A69086802401D
:101010009A620A6062B61B68114AD968914206D08A
:10102000104E114811491E60DA601861196094F978
:101030000C006CE7FF2580E71408FF1F00E100E0CB
:1010400004E100E008E100E00CE100E0C008FF1F5F
:1010500080E100E084E100E088E100E08CE100E074
:101060000650003801403F000650007800003F80E5
:1010700070B5044690F90C00431C41D094F90F3030
:1010800001330D466CD0C0B2002106F01DF845F0CA
:1010900080012046FFF74AFE00212046FFF746FE6A
:1010A000002105462046FFF741FE012140EA0525C3
:1010B000207B06F009F894F90F300133ADB201D06E
:1010C000284670BD454BDA7A1146002AF8D0D6077B
:1010D00003D54349D86908601146940703D5414AAE
:1010E000196A1160D97A480703D53F4A596A1160D5
:1010F000D97A0A07E4D53D4A9B6A1360284670BD39
:101100003B4E237801255B00304686F83B3086F85D
:101110005E5086F85D5005F017F82946304605F018
:101120007FF9217802222B46304605F003FA96F823
:10113000382096F839108A424CD2B0185319DBB2D5
:1011400090F9185086F8383099424FEA052541D970
:10115000334402321B7E86F838201D43ADB2AFE720
:101160001E4BDA7A002A26D072B6D97ACE070A4602
:1011700006D5204EDA6830681040D8610A463060E3
:10118000880706D51C491A69086802401A620A6075
:10119000DA7A510706D519495A69086802405A6235
:1011A0000A60DA7A120705D515499A69086802407B
:1011B0009A620A6062B61B68124AD968914206D0E8
:1011C000114E124812491E60DA601861196094F9D4
:1011D0000C0058E74FF6FF7572E700BF1408FF1FB9
:1011E00000E100E004E100E008E100E00CE100E0E3
:1011F000C008FF1F80E100E084E100E088E100E03A
:101200008CE100E00650003801403F0006500078B5
:1012100000003F8010B588210446FFF729FF40BA3F
:1012200020828A212046FFF723FF40BA60828C216A
:101230002046FFF71DFF40BAA0828E212046FFF70F
:1012400017FF40BAE08290212046FFF711FF40BA15
:10125000208392212046FFF70BFF40BA6083942140
:101260002046FFF705FF40BAA08396212046FFF7EE
:10127000FFFE40BAE08398212046FFF7F9FE40BA0E
:1012800020849A212046FFF7F3FE40BA60849C2117
:101290002046FFF7EDFE40BAA0849E212046FFF7CE
:1012A000E7FE40BAE08410BD38B5044690F90C0062
:1012B00021701546421C1FD0C0B2012105F004FF69
:1012C000207B012105F014FF94F90F00431C26D068
:1012D000C0B2012105F00CFF0121607B05F008FF81
:1012E0000021A07B05F004FFD0212046FFF704FE7B
:1012F000A8420AD0002038BD0B4804F039FFD021A5
:101300002046FFF7F9FDA842F4D12046FFF782FFFF
:1013100020463F22F421FFF743FD012038BD03485A
:1013200004F092FEE0E700BFC008FF1F1408FF1F93
:10133000F8B590F90C506E1C044645D090F90F306A
:1013400001330E4679D0E8B2002105F0BDFE46F02B
:1013500080012046FFF7EAFC00212046FFF7E6FC6B
:10136000002105022046FFF7E1FC0021054320464D
:10137000FFF7DCFC2D0201210543207B05F0A4FED4
:1013800094F90F30013301D02846F8BD484BDA7A82
:101390001146002AF8D0D60703D54649D869086017
:1013A0001146940703D5444A196A1160D97A48074F
:1013B00003D5424A596A1160D97A0A07E4D5404AEE
:1013C0009B6A13602846F8BD3E4E037801275B00F8
:1013D000304686F83B3086F85E7086F85D7004F023
:1013E000B3FE3946304605F01BF83B4621783046BF
:1013F000032205F09FF896F8383096F83940A3425A
:10140000C2D2F118DA19D2B2097E86F83820944295
:101410004FEA0120B8D9B1189A1C097ED2B2014313
:10142000A2424FEA012186F83820ADD2324403337C
:10143000157E86F838300D43A6E71D4BDA7A002A70
:1014400026D072B6D97ACD070A4606D51E4DDA687F
:1014500028681040D8610A462860880706D51B49CD
:101460001A69086802401A620A60DA7A510706D5DA
:1014700017495A69086802405A620A60DA7A1707FF
:1014800005D514499A69086802409A620A6062B6F2
:101490001B68114AD968914206D0104D1048114975
:1014A0001D60DA601861196094F90C504BE700BFB9
:1014B0001408FF1F00E100E004E100E008E100E0A3
:1014C0000CE100E0C008FF1F80E100E084E100E0E3
:1014D00088E100E08CE100E00650003801403F0068
:1014E0000650007800003F8038B5FA210446FFF727
:1014F0001FFF218AB4F91420B4F91250DFED0E7ADF
:10150000C1EB202303FB03F31B134900C1EBE011E4
:1015100002FB03F39B1305FB01F003EBE02000EB60
:10152000800380331B1200EE103AB8EEC00AA060B0
:1015300080EE270A38BD00BF0000C8422DE9F04FF9
:10154000064685B0FFF7D0FFF7213046FFF7F0FEE3
:10155000B468B6F91A20B6F918800390E517B4F507
:10156000FA3445F1FF35A4FB04AB04FB05F30BEBA8
:10157000430B02FB0BFED3170AFB03EEA2FB0A236D
:101580007344170A47EA03671B124FEAE87908FB1E
:1015900005FC00970193A8FB040104FB09CCDDE9DD
:1015A000002361444FEA00384FEA013912EB080288
:1015B00049EA105943EB0903101CF28A43F5004134
:1015C000A0FB028902FB01994FEA69024FEAE97325
:1015D00052EA030100F0AD80B6F91E8003984FEA8D
:1015E000E87908FB05F104FB0911A8FB04450D444B
:1015F0000711B6F920004FEA4549C11749EAD43925
:101600004FEA444800FB0BF40AFB0144A0FB0AAB81
:10161000B6F91C00A344C100002401910094DDE947
:101620000045C7F580171AEB080A4FEAE7714BEB44
:10163000090BF80714EB0A044FEAC17145EB0B05DF
:1016400041EA5701001B61EB050110EB000841EB7B
:10165000010918EB000849EB01094FEA89154FEA27
:10166000881445EA986518EB040849EB05094FEA28
:1016700089044FEA880544EA987415EB000844EBA6
:1016800001094FEA88054FEA8904401944EA987431
:1016900061410BF07BFEB6F926204C134FEA503E19
:1016A0004EEAC14E02FB04F5D3170EFB0355A2FB15
:1016B0000E2302FB04F7B6F924402B440EFB0377FC
:1016C000E517A2FB0E2304FB01FE3B444FEA5268E0
:1016D00000FB05E7A4FB00453D4448EAC3184FEA78
:1016E000D44A10EB0800B6F922404FEA63694AEA8F
:1016F000453A41EB09014FEAE54B1AEB000A4BEB87
:10170000010BE5174FEA1A2242EA0B622901200178
:101710004FEA2B23801841EA147159410BF0F8FD70
:101720009FED060A07EE900A27EE800A05B0BDE895
:10173000F08F9FED030A05B0BDE8F08F0000803BFD
:1017400000000000FFFFFFFF08B52DED028BB0EE9B
:10175000408AFFF7F3FEDFED167A80EE270AC0EE2F
:10176000087A17EE900A0BF067F99FED0D1B41EC1C
:10177000100B08F0FDF9002053EC102B0D490AF076
:10178000FBFF09A3D3E900230BF0AAF90BF0A0FC9F
:10179000BDEC028B00EE100A08BD00BFAFF3008065
:1017A00000000020C05BC83F0000000040A5E540ED
:1017B0000000C8420000F03F704700BF704700BF04
:1017C00038B504460D462D48182106F00BFC2C4870
:1017D00006F028FE13212B4806F004FC284806F0EA
:1017E00021FE04F1100058227721FFF75DFDF0B9CA
:1017F000254A034613212548137006F0F3FB2048C1
:1018000006F010FE1321224806F0ECFB1C4806F0FF
:1018100009FEBDB92046002304F51B7100220365B3
:1018200043658365C26514308842F8D138BD164BD4
:101830001848012212211A7006F0D4FB104806F055
:10184000F1FDDFE70C21204604F0FAF970B1012127
:10185000204604F099F912210F4806F0C3FB08480E
:1018600006F0E0FD0D4B00221A70D3E713210C485F
:1018700006F0B8FB024806F0D5FDF3E77C3A01001C
:10188000580BFF1F983A0100E21DFF1FAC3A010000
:10189000D43A0100C03A0100FC3A0100E31DFF1FE9
:1018A000E83A010084B0F0B585B00BAC84E80E00D6
:1018B00084460E986246ACF51B716346D3F8A8E2E5
:1018C000D3F8AC72D3F8B062D3F8B852D3F8B442BC
:1018D000C3F8BCE2C3F8C072C3F8C462C3F8CC5208
:1018E000C3F8C842143B9942E8D107EE900A9DED37
:1018F0000B7A9DED0D6A0C9C9FED4D5ACCF85C0067
:101900000023F8EE675ACCF860308CED147ACCF8EE
:1019100054408CED166A6346D3EDAD7AF8EE677AE3
:10192000143B77EEE57AC7EE856AC3EDB36A994258
:10193000F2D1DFED406A0CF51B71B0EE665AF0EEA5
:10194000664AF0EE665A634601E093ED147AD3EDF1
:10195000187A1433994235EE075A75EEA75AE7EE16
:10196000A74AE7EE876AF0D1F3EE0F7A67EEE66AF0
:1019700067EEE44AE5EE856A2F49E5EEA54A0CF5E7
:10198000A073DFED2C5ADCED187A86EEA40AF6EE91
:10199000004A81ED000AD2ED1B6A92ED1D7A36EE07
:1019A000866A77EEC77A26EE245A14329342E5EE21
:1019B000275AB0EE666AF0EE477AECD130EE250A8F
:1019C0001E4CB4EE400AF1EE10FAC4ED005A1FD6D8
:1019D000DFED1B7AB4EEE70AF1EE10FA06DCDFED7C
:1019E000197AB4EEE70AF1EE10FA0CD53321684605
:1019F00006F0EAFF6946144800F0AAFC684606F0C3
:101A000071FF9FED0C0A05B0BDE8F04004B07047CF
:101A10003221684606F0D8FF6946A4F5966000F0CA
:101A200097FC684606F05EFF9FED020AEBE700BFF9
:101A30000050C347000000003C1DFF1F401DFF1F5A
:101A400000009643000048C29018FF1F10B50446DE
:101A500018E006F0C7FA04F110009FED0E0AFFF738
:101A600073FE10EE100A0AF0E7FF02460B460A4822
:101A70000A4906F0EFFC0121094806F0B3FA0648CE
:101A800006F0D0FC06F034FA00284FF012010548A9
:101A9000DFDD10BD00507D44580BFF1F643B01008B
:101AA00008390100503B0100D0B5044696B03AE039
:101AB00004F074F928220DEB0200214604F06EF9BF
:101AC0002E22214610A804F069F9DDE90601DDE9BE
:101AD0000867CDE90001DDE90423CDE90267174974
:101AE000174806F0B7FCDDE91201DDE91467CDE91E
:101AF0000001DDE91023CDE902671249104806F024
:101B0000A9FCDDE90C01DDE90E67CDE90001DDE9A5
:101B10000A23CDE902670C49094806F09BFC4FF403
:101B2000FA6005F00FFB06F0E3F9002821464FF0BC
:101B30001A0204A8BCDD16B0D0BD00BF6C3B01008A
:101B4000580BFF1F903B0100BC3B010070B584B0F7
:101B500006460025162138488DF80F5006F042FA47
:101B6000364806F05FFC06F0C3F904460DF10D029D
:101B70000DF10F000DF10E0303A934B1042D02DDA8
:101B80002F4B01221A7004B070BD0090304604F053
:101B9000B1F811212B4806F025FA23460A229DF8B8
:101BA0000C10264806F064FC0621274806F01AFAB5
:101BB00023460A229DF80D10204806F059FC072103
:101BC000224806F00FFA23460A229DF80E101B4801
:101BD00006F04EFC05211E4806F004FA23460A22B0
:101BE0009DF80F10154806F043FC0121194806F036
:101BF000F9F9124806F016FC9DF80E30022B14D9A4
:101C00009DF80D30022B10D99DF80F30022B0CD906
:101C10009DF80C30022B05F101054FF4967004D9A4
:101C200005F090FA042DABDC9DE74FF4967005F0BB
:101C300089FA002597E700BFE43B0100580BFF1F1E
:101C4000E31DFF1FFC3B0100103C0100183C01009C
:101C5000203C01000839010010B588B00DF10F03D8
:101C6000009300240DF10E030DF10D0203A98DF870
:101C70000F4004F03FF89DF80C30022B30D99DF84E
:101C80000D30022B20D99DF80E30022B10D99DF873
:101C90000F30022B0AD8184904A806F063FE174833
:101CA00004A900F055FB04A806F01CFE08B010BD06
:101CB00004A8382106F088FE04A9104800F048FB6B
:101CC00004A806F00FFEE2E704A8392106F07CFE26
:101CD00004A90A4800F03CFB04A806F003FED2E782
:101CE00004A8312106F070FE04A9044800F030FB7E
:101CF00004A806F0F7FDC2E7283C01009018FF1F7A
:101D000070B52DED068B8CB0044601462E22684638
:101D100004F044F82822214606A804F03FF8DDE943
:101D200000010BF0D5F90AEE100ADDE902010BF013
:101D3000CFF908EE100ADDE904010BF0C9F909EE4C
:101D4000100ADDE906010BF0C3F909EE900ADDE99E
:101D500008010BF0BDF90AEE900ADDE90A010BF06B
:101D6000B7F9164B08EE900A03F2C44103F59962E5
:101D7000204603F5976603F2BC4503F5986403F229
:101D8000CC4385ED008A86ED00AA84ED009AC1ED72
:101D9000009AC2ED00AAC3ED008AFFF75DFF28EEAE
:101DA0002A8A9FED070AAAEE298AA9EE288A88EED8
:101DB000000A0CB0BDEC068B70BD00BF9018FF1F71
:101DC000C3F51C4170B5054684B00C468AB128485D
:101DD00000F020FB064600283DD10D21254806F0E5
:101DE00001F9254806F01EFB4FF47A7005F0AAF9B8
:101DF00021E09FED220A1030FFF7A6FCD5ED117A05
:101E000095F8483030EE670A84ED000A43B31C4B66
:101E10001B6803930398642303FB00F0E060194BF5
:101E2000984284BF012385F848302846FFF768FFB1
:101E3000012684ED020A04F10C0393E803008DE807
:101E40000300284694E80E00FFF72CFD304684ED91
:101E5000010A04B070BD0F2005F074F90126EAE70D
:101E600005F04CF9084BA3FB0030C008E060D6E752
:101E70009018FF1F2C3C0100580BFF1F00507D44A1
:101E8000801EFF1F00B10819CDCCCCCC84B0F0B5BA
:101E90008DB013AC9DF8745084E80E0075BB0446F9
:101EA00001461A22684603F079FF1422214606A84B
:101EB00003F074FF224CDDE900010BF009F925461F
:101EC00045F8080BDDE902010BF002F92860DDE9B5
:101ED00004010BF0FDF86060DDE906010BF0F8F895
:101EE00044F80C0CDDE908010BF0F2F844F8040C9E
:101EF000DDE90A010BF0ECF844F8080C114B1699D7
:101F0000C3F8A01403F2A441139E0E6003F595617B
:101F1000149C0C6003F2B44603F59D6403F2EC419B
:101F2000159F189D19981A9A376003F59E632560CE
:101F300008601A600DB0BDE8F04004B0704700BF03
:101F40006C1DFF1F9018FF1F38B59FED0D0A0D4D3A
:101F500004461030FFF7F8FB162184ED110A0A48F9
:101F600006F040F8606C0AF067FD41EC100B284663
:101F7000022106F0C5FA2846BDE8384006F052BAFC
:101F800000507D44580BFF1F3C3C010010B50B4C2A
:101F900004F08EFC28224FF0FF31204603F0CEFDE6
:101FA00004F11000FEF7BCFE0023204684F8483000
:101FB000034A0449BDE810400BF0ACBBD415FF1F29
:101FC0000C08FF1FBD17000000207047027C02F0C4
:101FD000080202F0FF0332B1C36A406A181A48BF10
:101FE0006FF0004070471846704700BF103002F095
:101FF00057B900BF00B583B001220DF107011030C1
:1020000002F086F801280CBF9DF807004FF0FF3062
:1020100003B05DF804FB00BF103002F02DBA00BF22
:10202000103002F02FBA00BF00B583B002AB01221E
:1020300003F8011D1030194602F024FA03B05DF8D0
:1020400004FB00BFF0B51B218FB00446414805F0EA
:10205000C9FF414806F0E6F91421404805F0C2FFE7
:1020600004F29C453C4806F0DDF9284603F084FB69
:1020700058B93B4B3B48002214211A7005F0B2FFBF
:10208000354806F0CFF90FB0F0BD04F58F6604F1C6
:102090003C07E563304601F0CDFF0121384603F0EF
:1020A00025F800284ED03946304602F02BF800289B
:1020B000DFD094F8783413F0700FDAD02A4A284B26
:1020C0002A481660012513211D7005F08BFF224858
:1020D00006F0A8F900222B4631468DF814208DF821
:1020E00015208DF808208DF8102005A84FF47A7679
:1020F0001F4D204A0396019501F0AAFF9DF8143068
:102100007BB11B070DD50C9A0A9B9A4209D0A2639A
:102110001949114806F09EF905A801F08BFF0FB090
:10212000F0BD1921154805F05DFF1121114805F09A
:1021300059FF1721124805F055FF074806F072F9BC
:102140000FB0F0BD0146384602F0D0FF0028AAD1FA
:102150008FE700BF783C0100580BFF1F943C010043
:10216000E11DFF1F1C3D01002C1EFF1FAC3C0100A8
:102170005C3C0100C03C0100D43C0100E83C010093
:10218000043D0100F0B599B018AD6A4B45F8343DF7
:1021900000238DF83C308DF83D308DF830308DF8CF
:1021A0003830044663230F46634A00F58F614FF4CD
:1021B0007A760FA80D9601F04BFF9DF83C300BB9D5
:1021C00019B0F0BD04F59663D4F8A06418680AF05D
:1021D00033FCCDE9080104F2AC4318680AF02CFC8A
:1021E000CDE9060104F2B44318680AF025FCCDE9F4
:1021F000040104F5956318680AF01EFCCDE902019C
:1022000004F2A44318680AF017FC3246CDE9000135
:102210004A49284606F01EF95FB304F2F4431868F1
:102220000AF00AFCD4F80435B4F90065B4F9FE24C8
:10223000069394F8FD34059694F8FC740492B4F96E
:10224000FA64B4F9F844039302460B468DE8D000D3
:102250003B49284606F0FEF800223A490FA802F052
:1022600011F9284606F0DEF80FA801F0E3FE19B0D8
:10227000F0BD04F5976318680AF0DEFB04F2CC4366
:10228000064618680F460AF0D7FBCDE9080104F5A9
:10229000996318680AF0D0FBCDE9060104F2C44343
:1022A00018680AF0C9FBCDE9040104F598631868C1
:1022B0000AF0C2FBCDE9020104F2BC4318680AF03F
:1022C000BBFB3246CDE900013B461F49284606F0DC
:1022D000C1F804F59A6318680AF0AEFB04F2E4430F
:1022E000064618680F460AF0A7FBCDE9080104F579
:1022F0009C6318680AF0A0FBCDE9060104F2DC43F8
:1023000018680AF099FBCDE9040104F59B6318688D
:102310000AF092FBCDE9020104F2D44318680AF0F6
:102320008BFB3246CDE900013B460849284606F0C2
:1023300091F872E75C3C01003C3D01004C3D01001E
:10234000AC3D0100A44601006C3D01008C3D010044
:10235000F0B58FB00EAD274B274A45F8343D002429
:1023600063230F464FF47A7600F58F6105A88DF848
:1023700014408DF815408DF808408DF810400396F4
:1023800001F066FE1D4B9DF814201B680093009B16
:1023900042B919211A4805F025FE05A801F04AFEA8
:1023A0000FB0F0BD07EE903A9FED167AF8EE677A1F
:1023B000C7EE876A16EE900A0AF03EFB0B4602460D
:1023C0001149284606F046F80122104905A802F0F6
:1023D00059F83946284605F0FFFF22460C4905A862
:1023E00002F050F8284606F01DF805A801F022FE7C
:1023F0000FB0F0BD5C3C0100C83D0100801EFF1F16
:10240000E43D010000007A44DC3D0100683D01002C
:10241000A4460100F0B52DED048B93B012AE654BD0
:10242000654A46F8343D00244FF47A7E0123054680
:102430000F4600F58F6109A8CDF81CE08DF8244007
:102440008DF825408DF818408DF8204001F000FEF1
:1024500004215A4805F0C6FD594805F0E3FF9DF8F0
:102460002430002B3CD01B073AD5109A0E9B9A4281
:1024700036D0696B09A801F05BFF304606F0F6F92B
:102480003046B0EE409A06F0F1F93046F0EE408A60
:1024900006F0ECF90E9B6B6309A8B0EE408A01F0E0
:1024A000C9FD9FED487A6A6BAB6BC7ED008A29EED8
:1024B000077AF2EE046AC7EE267A511C994287ED3C
:1024C000028AFCEEE77AC7ED037A1DD33E493C4809
:1024D00005F0C0FF20466C6313B0BDEC048BF0BD6B
:1024E0002D213A4805F07EFD01A8352106F06CFA51
:1024F00001A92846FFF72CFF01A806F0F3F90020F8
:1025000013B0BDEC048BF0BD2146314805F06AFDE7
:102510002B4805F087FF1C212E4805F063FD284855
:1025200005F080FF0B212C4805F05CFD696B244809
:1025300005F0DEFF224805F075FF0721274805F06A
:1025400051FD19EE100A0AF077FA41EC100B042144
:102550001B4805F0D5FF0621214805F043FD18482A
:1025600005F060FF0B211F4805F03CFD18EE900AB6
:102570000AF062FA41EC100B0421114805F0C0FF8B
:102580000F4805F04FFF0F21174805F02BFD18EEFF
:10259000100A0AF051FA41EC100B0421084805F02A
:1025A000AFFF074805F03EFF012013B0BDEC048BE0
:1025B000F0BD00BF5C3C0100C03C0100003E0100DA
:1025C000580BFF1F00247449083E01006C3E0100B7
:1025D000A4460100143E0100343E0100403E0100CB
:1025E000483E0100503E01005C3E01002DE9F041F3
:1025F00000F58F649AB0884620464249424D01F06A
:1026000083FE4249204601F07FFE1AAE00224FF4BD
:102610007A778DF810208DF811208DF804208DF830
:102620000C20214604A86323364A029746F8685DC9
:1026300001F00EFD9DF81070002F58D0B8F1000F7A
:1026400040D1F722324904A801F01CFF304605F0C2
:10265000E9FE04A801F0EEFC214600244FF47A774D
:1026600063232A4A8DF844408DF845408DF8384060
:102670008DF8404011A811AC0D950F9701F0E8FCC2
:102680000FCC04AD0FC50FCC0FC59DF8107020689E
:102690009DF838100F9A9DF8403028608DF804108E
:1026A00002928DF80C30B7B10E221A4904A801F03D
:1026B000E9FE304605F0B6FE04A801F0BBFC1AB0F6
:1026C000BDE8F0816A22144904A801F0DBFE30461F
:1026D00005F0A8FEBDE71F21104805F083FC104857
:1026E00005F0A0FE0F4B1F701AB0BDE8F0811F214E
:1026F0000A4805F077FC0A4805F094FE094B1F7064
:10270000AAE700BF3C3D01005C3C0100C83D010060
:10271000283F010020400100BC3E01009C3E01001A
:10272000580BFF1FE11DFF1F08B504F0C1F80B4B4C
:102730000B4A1A6000220B491A744FF47A705A74CB
:102740001A711A7383F8432083F8782483F8792464
:102750009860C3F89C145A6308BD00BF9018FF1F0F
:102760005C3C0100184A010008B50121022004F078
:10277000BFFC0121032004F0BBFC0121062004F072
:10278000B7FC0021042004F0B3FC0021052004F074
:10279000AFFC0021162004F0ABFC00211720BDE89F
:1027A000084004F0A5BC00BF2DE9F041134D84B0F2
:1027B00004461C21124805F015FC284605F032FE9F
:1027C0001720A66BE76BD4F8408004F083FC044626
:1027D000162004F07FFCB4FA84F1B0FA80F04009CE
:1027E000490902900191CDF800803B4632462846C7
:1027F000044905F02FFE04B0BDE8F081580BFF1F1F
:10280000304001005040010070EEC00A9FED1A0AEE
:10281000DFED1A7A60EEC00AF4EEE70AF1EE10FA84
:1028200017DAF5EEC00AF1EE10FA22D9816BC06B0F
:10283000FDEEE07A401A632817EE903A0FDC104A5A
:1028400000FB033382FB0302DB17C3EB2212501899
:1028500070476423816BC06B401A6328EFDD094A1F
:1028600003FB00F382FB0320DB17C3EB6013581854
:1028700070470023EEE700BF000048420000C84256
:10288000CBF08D281F85EB512DE9F041044684B033
:1028900090460D46002947D00121022004F014FC87
:1028A0000021032004F010FC172004F013FC06465E
:1028B000162004F00FFC314B226C616CA3F8F82455
:1028C000071C18BF0127321C18BF012283F8FC74B3
:1028D000E76BA3F8FA14A16B83F8FD24626BC3F8CD
:1028E0000425A3F8FE74A3F800152EBB002D36D0E6
:1028F00030B34146062004F047FAE36BA56B5B1B3F
:10290000D72B0EDC0022F023A263E3631C49684648
:1029100006F028F819486946FFF71AFD684605F0E1
:10292000E1FF04B0BDE8F081022004F0CDFB0121FD
:10293000032004F0C9FBB7E70028DAD1002DD8D076
:102940000021062004F020FAE36BA26B9B1A002BF7
:10295000B8BF5B4200252364E363A563CFE7294644
:10296000062004F011FAA36BE26B2564D21A82EA06
:10297000E273A3EBE273E363A563C0E79018FF1F64
:10298000AC40010008B50021022004F09DFB0021AD
:10299000032004F099FB00210620BDE8084004F064
:1029A000F3B900BF10B50446416401F0E9F9626B68
:1029B000002A1BDBD2B201211148FFF765FF104B43
:1029C000626C1B6C9B1A002BB8BF5B42032B09DCAB
:1029D0000C4A13780133DBB2072B0ED90023137096
:1029E000012010BD074B0020187010BD5242D2B21A
:1029F00000210348FFF748FFE1E71370002010BDF6
:102A0000981DFF1FE01DFF1FF8B5044605F070FA82
:102A1000002803DD1EE00F2004F094FBB4F9381009
:102A20002046FFF7BFFF0028F5D0B4F93C10204640
:102A3000FFF7B8FF0028E9D10F2004F083FBB4F9B9
:102A40003C102046FFF7AEFF0028F5D005F050FA05
:102A50000028E3DD7648774E774D00F087FC05F0DF
:102A600047FA002803DDE1E00F2004F06BFBB4F926
:102A700038102046FFF796FF0028F5D02046FFF7D4
:102A800081FF4FF4FA7004F05DFB08E0111809B201
:102A90002046FFF787FFF0B90F2004F053FBA06B2F
:102AA000E36B1B1A5A1C02EB421285FB0271632B6B
:102AB0004FEAE27203EB4313C2EB2112E6DD86FB21
:102AC0000321DB17C3EB6113191809B22046FFF786
:102AD00069FF0028E0D02046FFF754FF4FF4FA705A
:102AE00004F030FB08E0D91909B22046FFF75AFF7D
:102AF00008BB0F2004F026FBA76BE26BD21B531C14
:102B000003EB43135B0085FB0301632A4FEAE37386
:102B100002EB42104FEA4002C3EB2113E3DD86FBD8
:102B20000213D217C2EB6312D11909B22046FFF784
:102B300039FF0028DDD02046FFF724FF4FF4FA705C
:102B400004F000FB02E00F2004F0FCFAB4F93C10A2
:102B50002046FFF727FF0028F5D02046FFF712FF99
:102B60004FF4FA7004F0EEFA08E0D91909B22046E1
:102B7000FFF718FF08BB0F2004F0E4FAA76BE26B25
:102B8000D21B531C03EB43135B0085FB0301632A39
:102B90004FEAE37302EB42104FEA4002C3EB21130A
:102BA000E3DD86FB0213D217C2EB6312D11909B21F
:102BB0002046FFF7F7FE0028DDD02046FFF7E2FEB3
:102BC0004FF4FA7004F0BEFA08E0111809B220467A
:102BD000FFF7E8FEF0B90F2004F0B4FAA06BE36B46
:102BE0001B1A5A1C02EB421285FB0271632B4FEA3F
:102BF000E27203EB4313C2EB2112E6DD86FB0321F5
:102C0000DB17C3EB6113191809B22046FFF7CAFEA0
:102C10000028E0D02046FFF7B5FE4FF4FA7004F02C
:102C200091FA05F065F900287FF721AFF8BD00BFE4
:102C30001008FF1F1F85EB51CBF08D282DE9F043C5
:102C400095B000230D464FF47A71374E8DF82C3035
:102C50008DF82D308DF820308DF8283009910446FC
:102C6000324A334907960BA8632301F0F1F9DFF8E4
:102C7000DC80304E304F13E0111809B22046FFF7C8
:102C800091FE63238146294A002849D139680BA85F
:102C900001F0DEF99DF82C30C3B90F2004F052FA90
:102CA000A06BE36B1B1A03FB055286FB02E1632B4F
:102CB0004FEAE27205FB03F3C2EB2112DCDD88FB75
:102CC0000321DB17C3EB61131918D6E71B4B1C4913
:102CD0001B68D1F804050693B1F900E5069A236C48
:102CE0000590B1F9FEC4CDF810E091F8FDE491F83B
:102CF000FC04CDF80CC0616C0091CDF808E00190A7
:102D0000104907A805F0A6FB4A460F490BA801F099
:102D1000B9FB07A805F086FB0BA801F08BF9BCE70F
:102D200015B0BDE8F08300BF5C3C0100E440010049
:102D3000081DFF1FCBF08D282C1EFF1F801EFF1FBC
:102D40009018FF1FFC400100A44601001F85EB51B5
:102D5000F0B593B08149044612AD814801F0D4FA30
:102D6000804B45F8343D00234FF47A768DF82430BB
:102D70008DF825308DF818308DF82030774A784955
:102D8000079609A8632301F063F99DF8246056B9FA
:102D90002921754805F026F9744805F043FB744B6A
:102DA0001E7013B0F0BD48227249734E09A801F09D
:102DB00069FB284605F036FB09A801F03BF93368AA
:102DC0000193019D162004F085F93C220121D0B128
:102DD0002046FFF759FD1A21684805F003F96348BA
:102DE00005F020FB05F084F8002804DD2046FFF7FD
:102DF000C9FD13B0F0BD33680293029B5B1BB3F5B2
:102E00007A6FF3D8DEE733680393039F172004F04B
:102E100061F93C2205460021A8B12046FFF734FDA8
:102E20001921574805F0DEF8504805F0FBFA05F087
:102E30005FF80028DADC33680493049BDB1BB3F5EE
:102E40007A6FD3D8E2E74F4B0122014620461A7031
:102E5000FFF7F4FE2046FFF795FD4FF4967004F05F
:102E600071F929462046FFF7E9FE19212046FFF7B0
:102E7000E5FE2046FFF786FD4FF4967004F062F9F8
:102E800020461921FFF7DAFE32212046FFF7D6FE51
:102E90002046FFF777FD4FF4967004F053F9204673
:102EA0003221FFF7CBFE4B212046FFF7C7FE20461D
:102EB000FFF768FD4FF4967004F044F920464B216B
:102EC000FFF7BCFE64212046FFF7B8FE2046FFF75F
:102ED00059FD4FF4967004F035F920466421FFF750
:102EE000ADFE4B212046FFF7A9FE2046FFF74AFD25
:102EF0004FF4967004F026F920464B21FFF79EFE12
:102F000032212046FFF79AFE2046FFF73BFD4FF4A3
:102F1000967004F017F920463221FFF78FFE192131
:102F20002046FFF78BFE2046FFF72CFD4FF49670EE
:102F300004F008F920461921FFF780FE29462046B3
:102F4000FFF77CFE2046FFF71DFD20462946FFF7D0
:102F500075FE2046FFF716FD23E700BFE4400100A1
:102F6000081DFF1F5C3C010018410100580BFF1FAA
:102F7000E11DFF1F44410100801EFF1F9041010021
:102F8000AC410100E41DFF1F70B5114C82B0FF265B
:102F90006FF0FE0503F08CFC04F1440304F13402ED
:102FA00004F1400120468DE86000DFED0A1A9FED34
:102FB0000A1A9FED0A0AF6EE000A00F0CDFE002381
:102FC000F022E2636363A363636402B070BD00BF79
:102FD000981DFF1F0000F443E71DA73D37894940B6
:102FE00010B5044605F07EFC204610BD10B5064C19
:102FF0000021204605F0B6FC2046044A0449BDE8FD
:1030000010400AF087BB00BFE81DFF1F0C08FF1F20
:10301000E12F000038B5474C4748484D3B2104F0AC
:10302000E1FF204605F0FEF9642004F08BF8322120
:10303000434804F0D7FF204605F0F4F9642004F07B
:1030400081F832213F4804F0CDFF204605F0EAF92F
:10305000642004F077F82E213B4804F0C3FF20469B
:1030600005F0E0F9642004F06DF82F21374804F0F2
:10307000B9FF204605F0D6F9642004F063F82F214B
:10308000334804F0AFFF204605F0CCF9642004F08B
:1030900059F80021284604F0A5FF204605F0C2F9A2
:1030A00037212C4804F09EFF204605F0BBF9642030
:1030B00004F048F81C21284804F094FF204605F04D
:1030C000B1F9C82004F03EF82321244804F08AFF17
:1030D000642004F037F82921214804F083FF2046BA
:1030E00005F0A0F9642004F02DF838211D4804F003
:1030F00079FF204605F096F9642004F023F830218A
:10310000194804F06FFF204605F08CF9642004F0A4
:1031100019F85121154804F065FF204605F082F9A1
:103120002846002104F05EFF2046BDE8384005F047
:1031300079B900BF580BFF1F38420100A4460100B7
:1031400074420100A8420100DC4201000C4301006E
:103150003C4301006C430100A4430100C44301004F
:10316000E84301001444010050440100844401007C
:1031700008B5664B1B78002B00F09B800A21644841
:1031800004F030FF634805F04DF9634B1B78002BCA
:1031900000F09B800A21614804F024FF5D4805F09F
:1031A00041F95F4B1B78002B00F09B800A215D48A2
:1031B00004F018FF574805F035F95B4B1B78002BDE
:1031C00040F09B800D21594804F00CFF514805F058
:1031D00029F9322003F0B6FF1C21554804F002FF04
:1031E0004C4805F01FF9322003F0ACFF1421514880
:1031F00004F0F8FE474805F015F9322003F0A2FF6D
:1032000019214D4804F0EEFE424805F00BF932203A
:1032100003F098FF1821494804F0E4FE3D4805F00A
:1032200001F9322003F08EFF1421454804F0DAFE44
:10323000384805F0F7F8322003F084FF13214148A5
:1032400004F0D0FE334805F0EDF8322003F07AFFA9
:1032500014213D4804F0C6FE2E4805F0E3F8322064
:1032600003F070FF1A21394804F0BCFE294805F02C
:10327000D9F8322003F066FF2721354804F0B2FE6A
:10328000244805F0CFF8322003F05CFF20213148BC
:1032900004F0A8FE1F4805F0C5F8322003F052FFE5
:1032A00013212D4804F09EFE1A48BDE8084005F0A1
:1032B000B9B80D21294804F095FE164805F0B2F87A
:1032C000154B1B78002B7FF465AF0D21244804F0CB
:1032D00089FE104805F0A6F8114B1B78002B7FF4EF
:1032E00065AF0D211F4804F07DFE0A4805F09AF8ED
:1032F0000D4B1B78002B3FF465AF0A211A4804F0F0
:1033000071FE044805F08EF863E700BFE21DFF1F61
:10331000D8440100580BFF1FE31DFF1FF4440100B8
:10332000E11DFF1F10450100E41DFF1F384501008E
:103330004845010068450100804501009C450100A9
:10334000B8450100D0450100E4450100FC450100FD
:10335000184601004046010064460100E4440100B3
:10336000004501001C4501002C45010008B50A205C
:1033700003F0E8FE03E003F0E5FE04F07DFD04F059
:10338000B7FD00284FF00200F5DC08BD70B5404CD9
:10339000404D06461221404804F024FE29462046AE
:1033A00005F01AF8204605F03DF8322003F0CAFE79
:1033B00032783A49204605F04DF8322003F0C2FE3B
:1033C000286909F039FB02460B462046344905F0CE
:1033D00041F8322003F0B6FE686909F02DFB024681
:1033E0000B4620462F4905F035F8322003F0AAFE9F
:1033F000A86909F021FB02460B4620462A4905F040
:1034000029F8322003F09EFEE86909F015FB024618
:103410000B462046254905F01DF8322003F092FEA8
:10342000286A09F009FB02460B462046204905F0B0
:1034300011F8322003F086FE686A09F0FDFA0B46A7
:1034400002461C49204605F005F8322003F07AFEBA
:10345000AA6A1949204604F0FDFF322003F072FEEB
:10346000EA6A1649204604F0F5FF322003F06AFEAE
:103470002A6B1349204604F0EDFF322003F062FE70
:103480006A6B10492046BDE8704004F0E3BF00BFFE
:10349000580BFF1FE81DFF1F784601008C460100F6
:1034A000A8460100B8460100C8460100D446010004
:1034B000E0460100EC460100F8460100104701001B
:1034C00024470100344701002DE9F0412DED028B26
:1034D000013901EB81018EB0CD00A34C8046294615
:1034E00006A8042203F030FA069B2361291D06A8D2
:1034F000042203F029FA069B636105F1080106A87E
:10350000042203F021FA069BA36105F10C0106A831
:10351000042203F019FA069BE36105F1100106A8E5
:10352000042203F011FA069B236205F1140106A898
:10353000042203F009FA069B636205F1180106A84C
:10354000042203F001FADDED067AFDEEE77A05F1DB
:103550001C0106A80422C4ED0A7A03F0F5F9DDED9A
:10356000067AFDEEE77A05F1200106A80422C4EDF3
:103570000B7A03F0E9F9DDED067AFDEEE77A042235
:1035800005F1240106A8C4ED0C7A03F0DDF906A9C3
:1035900002A805F0E7F902A9204605F047FA02A8BB
:1035A00005F0A0F994ED085AD4ED077AD4ED066A37
:1035B00094ED097ADFED6D5A94ED046AE06A66EEE7
:1035C000856A27EE877A66EEA56A27EE257AF6EEFB
:1035D000008A27EE287A66EEA86A86EE868AC7EE0B
:1035E000066A84ED0E8A78EE267AC4ED0F6A67EEDD
:1035F000A87AC4ED107A09F00DFA236B9FED5C7A7E
:103600009FED5C6A03FB03F307EE903A28EE078A0E
:10361000F8EEE77AB1EE007A67EE887A0646C7EEF2
:10362000866A0F4676EE877A17EE900A09F004FA5A
:1036300041EC100B06F038FC00224F4B51EC100B04
:1036400009F04EFA41EC100B06F00AFAA06B8DED72
:10365000000B09F0F1F99DED000B02460B4651EC11
:10366000100B09F067FB02460B463046394609F05D
:1036700083F809F0E5FC60634046FFF787FED4ED70
:10368000047AB3EE0E7AF4EEC77AF1EE10FA0DD5A5
:10369000F5EEC07AF1EE10FA08DDD4ED057AB2EE5F
:1036A000047AF4EEC77AF1EE10FA0CD437213348DD
:1036B00004F098FC324804F0B5FE00200EB0BDECDA
:1036C000028BBDE8F081F5EEC07AF1EE10FAEDDD87
:1036D000D4ED067AB7EE007AF4EEC77AF1EE10FA7E
:1036E000E4D5F5EEC07AF1EE10FADFDDD4ED077A1D
:1036F000B0EE007AF4EEC77AF1EE10FAD6D5F5EE18
:10370000C07AF1EE10FAD1DDD4ED087AF4EEE87A61
:10371000F1EE10FACAD5F5EEC07AF1EE10FAC5DD79
:10372000D4ED097AF4EEE87AF1EE10FABED5F5EEB2
:10373000C07AF1EE10FAB9DDA26A40F6B631013A6C
:103740008A42B3D8E26A40F2A261013A8A42ADD815
:10375000226B013AF82AA9D8626B40F2A3639A421D
:10376000A4DC0120AAE700BFE81DFF1F3D0A973F28
:103770000000C843004075440000E03F444701009A
:10378000580BFF1F10B5242182B00446124804F0E4
:1037900029FC124804F046FE78210DF107000122B1
:1037A00003F0D2F89DF8071021704B1E022B0ED9A2
:1037B0000B490A4804F04EFE012378210DF1070061
:1037C00023701A468DF8073003F0E0F82178204680
:1037D000FFF77AFE02B010BD7C470100580BFF1FB7
:1037E000A447010010B58CB004460021684605F0DE
:1037F000B9F8002104A805F0B5F81B21994804F098
:10380000F1FB994804F00EFE2046FFF7BFFD9749F3
:10381000954804F01FFE9648FFF7A8FD04F068FBEA
:103820000028FBDD0A2003F08DFC78233B2208A84A
:103830008D4905F01FF808A9684605F0F7F808A8B3
:1038400005F050F811218B4804F0CCFB69468648FE
:1038500004F0C2FD844804F0E5FD3D21684605F012
:1038600065F9002203466946044608A805F06EF98A
:1038700008A904A805F0DAF808A805F033F8112122
:103880007D4804F0AFFB04A9774804F0A5FD764815
:1038900004F0C8FD794904A805F018F9002857D1AB
:1038A000774904A805F012F900283BD1754904A80E
:1038B00005F00CF9002869D1734904A805F006F950
:1038C000002854D1714904A805F000F900286CD1F2
:1038D0006F4904A805F0FAF8002840F083806D498C
:1038E00004A805F0F3F800286ED16B4904A805F090
:1038F000EDF8002840F08580684904A805F0E6F856
:10390000002840F08C80664904A805F0DFF8002804
:1039100040F093801321634804F064FB524804F0A4
:1039200081FD0DE0621C694608A805F033F908A87E
:1039300005F03EF95C4B08A883ED050A04F0D2FFC0
:1039400004A804F0CFFF684604F0CCFF0CB010BD13
:10395000621C694608A805F01DF908A805F028F9B9
:10396000514B08A883ED040A04F0BCFFE8E7621C91
:10397000694608A805F00EF908A805F019F94A4BA0
:1039800008A883ED070A04F0ADFFD9E7621C694679
:1039900008A805F0FFF808A805F00AF9424B08A8A6
:1039A00083ED060A04F09EFFCAE7621C694608A878
:1039B00005F0F0F808A805F0FBF83B4B08A883EDEC
:1039C000080A04F08FFFBBE7621C694608A805F0EF
:1039D000E1F808A805F0E6F8334B986208A804F06F
:1039E00081FFADE7621C694608A805F0D3F808A876
:1039F00005F0DEF82C4B08A883ED090A04F072FFED
:103A00009EE7621C694608A805F0C4F808A805F0FE
:103A1000C9F8254BD86208A804F064FF90E7621C3F
:103A2000694608A805F0B6F808A805F0BBF81E4BD3
:103A3000186308A804F056FF82E7621C694608A8CC
:103A400005F0A8F808A9184804F0F0FF08A804F049
:103A500049FF1549044804F0BFFC034804F0E2FCA8
:103A60006EE700BF20480100580BFF1F3C480100D3
:103A70001008FF1F94480100A8480100BC4801003D
:103A8000C4480100D0480100D8480100E0480100C6
:103A9000E4480100E8480100F84801000449010039
:103AA0001049010018490100E81DFF1F10B5124C14
:103AB0001249204604F0CEFC642003F043FB14219D
:103AC0000F4804F08FFA204604F0ACFC642003F0A9
:103AD00039FB16210B4804F085FA204604F0A2FCBD
:103AE000642003F02FFB1B21074804F07BFA2046DB
:103AF000BDE8104004F096BC580BFF1F2C49010094
:103B00004C490100644901007C49010010B582B0B4
:103B10000846144601A90023042204F0EDFF2146C3
:103B200001A8042202F032FF02B010BD70B5554C5E
:103B300090B010AB226943F8142D0E46013901EB09
:103B400081010546C900184604228DF8076002F07D
:103B50001DFF9DF807106369013910A801EB810171
:103B6000C90040F8183D0431042202F00FFF9DF80F
:103B70000710A369013910A801EB8101C90040F8C1
:103B80001C3D0831042202F001FF9DF80710E36993
:103B9000013910A801EB8101C90040F8203D0C312A
:103BA000042202F0F3FE9DF80710236A013910A8E1
:103BB00001EB8101C90040F8243D1031042202F0DC
:103BC000E5FE9DF80710636A013910A801EB810139
:103BD000C90040F8283D1431042202F0D7FED4ED8C
:103BE0000A7A9DF80710F8EEE77A013910A817EE67
:103BF000903A01EB8101C90040F82C3D18310422B4
:103C000002F0C4FED4ED0B7A9DF80710F8EEE77AC7
:103C1000013910A817EE903A01EB8101C90040F874
:103C2000303D1C31042202F0B1FED4ED0C7A9DF837
:103C30000710F8EEE77A013917EE903A10A801EB79
:103C40008101C90040F8343D0422203102F09EFE7B
:103C5000214610AC0CA804F099FE14F8392D013A55
:103C600002EB8202D2000CA928462432FFF74EFF55
:103C70000CA804F037FE20460122782102F086FECF
:103C800010B070BDE81DFF1F10B50446FFF70EFF12
:103C900004F02EF90028FBDD04F0EEF8732811D0B3
:103CA000782841D0652833D02621244804F09AF999
:103CB000234804F0B7FB2348FFF758FB2046FFF7E3
:103CC000F5FEE5E71921204804F08CF91C4804F0C2
:103CD000A9FB11211D4804F085F9194804F0A2FB45
:103CE0001848FFF743FB04F003F90028FBDD1448F4
:103CF00004F064FD431E022B17D8207020460122D9
:103D0000782102F043FE21782046FFF7DDFBD2E761
:103D10002046FFF767FD21782046FFF707FF21784F
:103D20002046FFF7D1FBC6E710BD1C21084804F070
:103D300059F9034804F076FBE0E700BFE8490100C9
:103D4000580BFF1F1008FF1F98490100B4490100DC
:103D5000C849010002F0ACBDF0B40027049E059DE7
:103D60004762C662056342610161836180ED000ABA
:103D7000C0ED010A80ED021AC0ED031AF0BC7047D5
:103D800038B50269836915681B6804465D1B03F03A
:103D9000B5F9A36ADFED466AD4ED087A94ED014ADD
:103DA000D4ED075AD4ED024AC31A07EE103AB8EE22
:103DB000476A07EE105A86EE265AB8EEC77A77EEB3
:103DC000676AD4ED0C7A86EE856A66EE846AF8EE50
:103DD000E77AE5EE265A26EE246AF4EEE75AF1EE8B
:103DE00010FAC4ED075A52DDC4ED077ADFED316AEF
:103DF000B4EEE65AF1EE10FA40DDD4ED006A00238D
:103E000067EE266AE361F4EEE76AF1EE10FA0ADC87
:103E1000D4ED0B7AF8EEE77AF4EEE76AF1EE10FAF9
:103E200058BFF0EE667ADFED246AF4EEE67AF1EE42
:103E300010FA06D5F2EE046AF4EEE67AF1EE10FA24
:103E400033DCDFED1E6AF4EEE67AF1EE10FA09DDFE
:103E5000FAEE046AF4EEE67AF1EE10FA02D56FF0AB
:103E60003B0303E0FDEEE77A17EE903A62691360D8
:103E700084ED096A84ED087AA06238BDD4ED005A59
:103E8000D4ED076AE7EE256A76EE866ABBE7F0EEC8
:103E9000656AD4ED0B5AF8EEE55AF4EEE56AF1EEF8
:103EA00010FA48BFC4ED075AA0E73C23DEE700BF85
:103EB000002474493108AC3C00007042000070C21C
:103EC00038B504460D46242200210AF02FF8A560DB
:103ED000EB79102B08D0202B04D140230120237034
:103EE000A07038BD002038BD202301202370A070B1
:103EF00038BD00BF2DE9F041037803F020032BB952
:103F000003F0FF044269214B9A4204D94FF00008A4
:103F10004046BDE8F08183780169054663F07F0380
:103F20008068AB7005F1100201F088F88046002827
:103F3000ECD02969A86801F00DF80646A86831465A
:103F40002430052200F0CEFF07460028DED04FF4D3
:103F50000072214609F0EAFFAB681A79012A10D9EC
:103F6000012403E0AB681A79A2420AD918680368F1
:103F7000A1199B683A4698470134E4B20028F1D170
:103F8000C4E76B6903EB42226A61C1E7FFFD1F00D2
:103F900010B5044680680A462430A16900F0A2FFEB
:103FA00020B1A38803F00F0300EB431010BD00BF46
:103FB00038B590F90230002B044618DBA56805F1EE
:103FC000240000F0BFFF28B9637843F00103637059
:103FD000002038BD05F50C7000F0B4FF0028F3D0C8
:103FE000286803685B6898470028EDD0F1E7012155
:103FF000FFF7CEFF05460028E6D00378E52BE3D097
:1040000023780B4A1B0744BFE369C361236A126824
:1040100043831B0C83822AB100F1160118309047AC
:104020002B8B6B82A37803F07F03A370C6E700BFDE
:10403000301EFF1F10B5037804461BB90023237000
:10404000012010BDFFF7B4FF0023237010BD00BF97
:10405000F0B5064693B03578019200208DF8240023
:104060008DF825002DB91F460B7813F0700F0C4604
:1040700002D1002013B0F0BD13782F2B104616D1BB
:104080000130019003782F2BFAD0002B34D0A16897
:1040900009A8FFF715FF0028EBD0019809AC06E04E
:1040A0003046FFF785FF00230198337009AC01AA61
:1040B00003A900F0F3FA03AA214601230028D8D06F
:1040C000019D2D7830467DB100F004FD354609ACE8
:1040D0000028CED00FCD0FC40FCD0FC433782A687F
:1040E0002260002BDFD0DBE73B4603AA21463046A7
:1040F00000F0F0FC13B0F0BDA1683046FFF7E0FE21
:10410000B8E700BF03780BB100207047FFF7D8BEB7
:104110002DE9F04F0F46017883B0054611B1837841
:10412000DC0708D46B784FF0FF3043F002036B706C
:1041300003B0BDE8F08F0B07914600F18780880639
:1041400008D5AA686B691289C3EB42139BB29945E3
:1041500028BF9946B9F1000F00F097806B698A0675
:104160004E464FF0000805F1100AC3F3080B3FD587
:10417000AA68116A01EB5321BBF1000F52D1B6F5C9
:10418000007F4FD3D36A99424CD0B6F5806F66D387
:10419000287880064FEA562B06D41079C8EB000029
:1041A000C0B2834528BF834699424FEA4B240BD8BF
:1041B0005B44994208D202F12400019100F0C2FE52
:1041C0000028AFD0AA680199106802685B46D2F84F
:1041D0000CB03A46D8470028A4D06B69361B23445C
:1041E00027446B6151D029788A06C3F3080BBFD4EA
:1041F000A86890F8058008EA5328BBF1000F2CD17D
:10420000B8F1000F29D1002B34D14C064CBF016A04
:10421000296A296100F09EFEAA6808EB0001BBF143
:10422000000FACD002F12400002200F05BFE002859
:104230003FF478AFCBF50074B44228BF344600EBAE
:104240000B012246384602F099FAC6E7EB696A6923
:104250009B1A994528BF99467CE72969DAE71068D7
:1042600003683A461B68984700283FF45BAF4FF459
:104270000074B2E75246296900F072FE0028FFF68A
:1042800051AF08D0A8682969C4E70026C6EB090029
:1042900003B0BDE8F08F2B7813F0700FF6D141E733
:1042A00070B582B001220DF1070104464669056927
:1042B000FFF72EFF012805BF9DF8070066614FF04C
:1042C000FF30256102B070BD30B54369C3F34315BB
:1042D00083B0044605B189B901220DF107012046DA
:1042E000FFF716FF40B201280BD163691F336361EA
:1042F000A068303000EB451003B030BD203343617F
:10430000F6E7002003B030BD10B58AB000240A469D
:104310000223014601A88DF804408DF80540FFF7FF
:1043200097FE10B101A800F0DFFA0AB010BD00BF7F
:104330002DE9F04103780769044693B142698A4246
:104340000E4636D021B9216166610120BDE8F081B9
:1043500018070AD499060BD5A3681B89B6EB431F2F
:10436000F2D927610020BDE8F081E1698E42F8D8DA
:10437000D4F808E09EF80650511E05F10900751E9C
:10438000C140C540A94200D8B2B95B064CBFDEF8B7
:104390002030236A236104F110084246002DD3D057
:1043A0002169A06800F0DCFD002805F1FF35F4DC90
:1043B000D7E70120BDE8F0816D1AECE72DE9F04167
:1043C000884615460021242204461E469DF8187092
:1043D00009F0ACFDD8F80800D8F82030E36005F00B
:1043E0000F02520100F130011144A060A580CB7A88
:1043F0001B0714D4831893F83B3003F01703237082
:10440000C97AE77011F0180F04BF43F00803237056
:1044100016F0320F07D0237813F0110F03D00020CD
:104420002070BDE8F08106F00F05A5700244C36A54
:10443000A361B2F84410B2F84A30F70643EA0141EA
:1044400007D42162D36CE361B30607D40120BDE831
:10445000F08151B965F07F05A570F5E7E169204667
:10446000FFF766FF0028F1D1D9E700F023FE00280E
:10447000D5D0A578EEE700BF03780BB1FFF798BD64
:10448000012070472DE9F84F03781E0704466FD5C9
:1044900083789D076CD55B070F46904600F1CD8071
:1044A0006369DA43904563D8B8F1000F00F0B68035
:1044B00046464FF0000933E0002940F08380216A2E
:1044C000002900F08A80216100F044FD0146B6F524
:1044D000007F55D3B6F5806F66D3A2681379D06A92
:1044E0005B1BDBB2750AAB4228BF2B4681424FEA09
:1044F000432508D81844814205D282F824904FF011
:10450000FF30D062A26810680268D2F810A03A4664
:10451000D04768B36369761B2B442F4463617DD019
:10452000A0682169457915EA5325C3F3080A34D1F7
:10453000BAF1000FC0D000F00DFD0146CAF50075BC
:10454000B54228BF35460122A068243000F0CAFCDD
:1045500070B150442A463946AA4402F00FF9BAF520
:10456000007FD7D1A068243000F0ECFC0028D1D126
:10457000637843F0010363704FF0FF30BDE8F88FBC
:104580006369E269B6F5007F354628BF4FF40075D0
:10459000934234BF01220522D6E700F0DBFC291844
:1045A000BAF1000F93D0C9E7A368DA6A914222D02A
:1045B000186803683A469B6898470028D8D04FF49B
:1045C0000075A7E704F1100B5A4600F0C9FC00285B
:1045D000CEDB17D02169A06876E7A37863F07F036C
:1045E000A37004F1100200F029FD0028C0D0216959
:1045F0002162A06868E783F824904FF0FF32DA6206
:10460000A368D5E7A3782169A06863F07F035A46C1
:10461000A37000F013FD0028DCD1A9E7E2699A42FB
:1046200012D2A278E36142F08003A3701A0701D589
:1046300023788BB94046BDE8F88FE169FFF778FE33
:1046400000287FF42DAF93E7074B1B6853B1A37885
:1046500043F08003A370E9E72046FFF7A9FC002898
:10466000E8D185E7A378E1E7301EFF1F38B5CB68B6
:1046700073B105460C462422002109F057FC102393
:1046800001202B70A870A268E3682B62AA6038BD75
:104690008968BDE83840FFF735BD00BF2DE9F04F10
:1046A0000378202B03D110F8013F202BFBD088602A
:1046B0000378002B00F007812F2B2FD05C2B22D00A
:1046C000A3F12204E4B21D2C20D9DFF818E2461C25
:1046D00000247C2BA3F12005374614D05E2D12D880
:1046E00016F8013BA3F12205EDB20134002B00F0D6
:1046F000D3802F2B13D05C2B2EFA05F703D01D2D62
:10470000E7D8FF07E5D50020BDE8F08F754D25FA05
:1047100004F4E407D9D50020BDE8F08F0024071980
:104720003E4625462F2302E016F8013F0135202B97
:10473000FAD02F2BF8D0054415604CB13A4612F848
:10474000013D2E2B02D0202B40F0A980013CF6D158
:104750004FF0FF3523464B6001F1170601F10C03C2
:10476000202203F8012FB342FBD1461E002200E0B5
:10477000013216F8013F2E2BFAD0202BF8D0B2FAD6
:1047800082FC6E1C4FEA5C1C0CD0475D2E2F00EBA8
:10479000050604D106E016F8017D2E2F02D015F192
:1047A000FF35F8D2A2424FF0000980F291804E46C8
:1047B000CA4607274FF0080825E02E2B47D0222BAA
:1047C0000BD07C2B09D0A3F12A0EBEF1050F48D9DE
:1047D000A3F13A0EBEF1050F58D8954239D0B74231
:1047E00029D34FF0000C5F2306F1010E01EB060BFD
:1047F0005FFA8EF6062E8BF80D3000D80E7301325C
:10480000A24207DA835C202BD7D10132A2424FF0BB
:10481000000CF7DB4B7B202B3FF475AFBCF1000F96
:1048200047D01AEA090F18BF4FF0020981F800902B
:104830000120BDE8F08F0A2F37D0954235DB2A469C
:104840000A2708264FF010084FF0000CD7E79542D2
:10485000DBD10A2F29D02A460A2708264FF0100854
:10486000CDE72D2BB9D1A3F1210EBEF15D0FB4D848
:104870009542EED0B742DED3A3F1610EBEF1190F1F
:1048800028D8203BDBB248EA0909ADE7A3F15B0E6B
:10489000BEF1020FA1D9E6E7176007194EE7FF2C1A
:1048A0003FF731AF651E234655E74B7B202B3FF486
:1048B0002AAF0B7B0B4401207E24312208705C73ED
:1048C0009A73BDE8F08F10601C464FF0FF3542E749
:1048D000CA469FE7A3F1410EBEF1190F98BF48EAFF
:1048E0000A0A81E7010100352DE9F04102788AB01A
:1048F000002311078DF804308DF8053002D5837838
:104900009A0704D4002630460AB0BDE8F081016A57
:104910000546002965D101212846FFF739FB00280B
:10492000F0D0411E00F10A070024620811F8016F5F
:1049300042EAC41356FA83F38F42DCB2F5D14FF04A
:10494000E50880F80080AE68002306F124002B7093
:1049500000F0F8FA0028D5D006F50C7000F0F2FA55
:104960000028CFD0306803685B6898470646002867
:10497000C8D0EB78002BC6D001A82946FFF776FEF9
:104980000028BFD0EB78002BBCD001271FE001A886
:10499000FFF79AFC7B1C0028B4D0C27A0F2AB1D151
:1049A000027802F01F018F42DFB2ABD1437BA342FA
:1049B000A8D180F80080A96891F8243043F0010361
:1049C00081F82430530612D4EB78BB429AD3A988DD
:1049D000C91B490101A8FFF7ABFC00210028D6D173
:1049E00090E7A86800F066FB00288BD093E7AC68DE
:1049F00004F1240000F0A6FA002883D004F50C701E
:104A000000F0A0FA00283FF47DAF206803685B68DF
:104A1000984700283FF476AF75E700BF2DE9F843CB
:104A20000F7B0E46044601F10D054FF002084FF0D2
:104A30007E097068B16808EB00039BB240B108447E
:104A400011F8012B03EB4313534088429BB2F7D17B
:104A5000032F28BF03273A1DD2B203F00F01B0186D
:104A6000013A0929D2B294BF3031373197424FEA27
:104A700013134173F1D3F319002183F80D902046ED
:104A8000FFF756FC01212046FFF71EFC0B220346D0
:104A90000146A8B193F800E02846BEF1000F15D0FA
:104AA000DB7A1B07EED409F0ABF90028EAD108F154
:104AB00001081FFA88F8B8F1640FBAD1BDE8F8838D
:104AC0006078B0FA80F04009BDE8F8830120BDE8C5
:104AD000F88300BF2DE9F04F0C7814F0700F8BB005
:104AE00001D004781CB100200BB0BDE8F08F147821
:104AF000D2F804B0A40740D14FF001090E46924607
:104B00000990002130460F460893FFF711FC0AF187
:104B10000D03079703973C46B846069705937569BA
:104B200001213046C5F34F15FFF7CEFB002800F0FA
:104B3000A1800378E52B39D0002B37D04C4538BF06
:104B400000242E2B2FD0C27A0F2A3DD002F008026B
:104B500002F0FF033ABBB8F1000F40F066810B2270
:104B6000059909F04DF90028D9D19AF80030DB07F2
:104B700040F16F8101230693D1E7BF4D0BF10C0487
:104B8000A5FB04494FEA990909F101095FFA89F97E
:104B9000B4E7039A013AD2B29342039203D1437B22
:104BA000079A9A421BD04FF00008B8E7002C08BFC4
:104BB0002F464C453CBF0134E4B2002B5ED0E52BC0
:104BC000BFD14FF00008AAE7B8F1000FE1D15A06B3
:104BD000A5D503F01F08437BCDF80C800793039BFA
:104BE000013B03EB430503EB8505AB45DBD9C5EB87
:104BF0000B0C0023049018E0DAF80800D2B2A2F1FE
:104C0000410E415CBEF1190F98BF2032A1F1410E57
:104C100098BFD2B2BEF1190F9CBF2031C9B29142E8
:104C2000C1D101330D2B3FF47AAFDAB2042A05EB80
:104C300003010DD90A2A17D904985A1C00EB420225
:104C400092889C450BD0FF2AD6D94FF0000866E722
:104C5000049A02EB43029C45B2F80120F3D1002AEA
:104C600018BF4FF000085AE704985A1E00EB4202A2
:104C7000D288E6E77378002B7FF435AF089B03F00A
:104C80004203422B7FF42FAF002C18BF3D464C450A
:104C900003D31AE0DCB2A14517D900213046FFF753
:104CA00013FB631C0028F5D1737823B11BE7B368AD
:104CB0001B79012B09D8A14507D93046FFF71AF90E
:104CC0001034E4B20028F2D10DE7069B33B151460F
:104CD0003046FFF7A3FE00283FF405AF69013046D8
:104CE000FFF726FB00283FF4FEAE09F1FF3818F06D
:104CF000FF0866D048F04003DBB20393444600252A
:104D000000213046FFF7E0FA00283FF4ECAEB2682D
:104D1000039992F82430A04543F0010308BF8E4662
:104D20004FF00F0718BFA64682F824300AF10C0195
:104D3000C772057380F800E00AF11707002311F825
:104D400001CF5A0842EAC3135CFA83F38F42DBB205
:104D5000F5D10EF01F0E0EF1FF3E4373DAF8083066
:104D600085760EEB4E020EEB820203EB0209C5764E
:104D700000230FE0042B19F8031000EB430EDFB201
:104D800014D90A2F72D8AEF8041001330D2B02F19A
:104D9000010212D09345EDD814BF4FF0FF3100212E
:104DA000042B89B200EB430EDFB2EAD801330D2B9E
:104DB000AEF8011002F10102ECD1013C14F0FF0445
:104DC0009ED1002130467569FFF77EFAC5F34F1575
:104DD000044600283FF487AE2022002109F0A6F8FF
:104DE0005346264953F80D2F5868606022601A898F
:104DF0009B7AA37222819AF800200B6802F01802B5
:104E00002273002B3CD004F10E0104F110009847EE
:104E1000238AE189B26863822383E18292F8243095
:104E200043F0010382F8243017E0039A012A7FF44B
:104E30005AAE441E0A3014F8011F5A0842EAC3133E
:104E400051FA83F3A042DBB2F5D1079A9A427FF47C
:104E50004AAE089B1F063FF546AECDF80080089B82
:104E600009982A463146FFF7A9FA3DE6013300EBDF
:104E70004307B9808AE700BF4FECC44E301EFF1FC6
:104E800021212822A37308232174E37362744FF451
:104E9000006142F62103BDE7F8B54368816800F17F
:104EA0000C0604461868036832469B68984740B170
:104EB00023789A07054607D423F001032370284678
:104EC000F8BD00252846F8BD6368A16818681F6909
:104ED0000368324639449B6898470028F1D023780C
:104EE000EAE700BFF8B583688B42064614460FD048
:104EF0000378DA070F4612D4630716D506F10C05BE
:104F0000002304F003041C4334702846B760F8BD46
:104F100010F90C3B04F003041C433470F8BDFFF798
:104F2000BBFF0028E8D10020F8BD7368186803684B
:104F300006F10C051B682A46394698470028DFD140
:104F4000F1E700BF0378DB0701D401207047FFF7CA
:104F5000A3BF00BF83794069023999400844704774
:104F6000012933D9C369994230D870B5C379202B50
:104F7000164605460C4618D0102B13D18369C1F391
:104F800007211944022200F50C70FFF7ABFF48B16E
:104F9000E1B230F81130EA6993429ABF01203360E0
:104FA000002070BD4FF0FF3070BD8169022201EB1F
:104FB000D41100F50C70FFF795FF0028F2D004F033
:104FC0007F0150F8213023F07043E4E74FF0FF30C9
:104FD000704700BF01291DD938B5C369994206D869
:104FE000C379202B15460C4616D0102B01D000207B
:104FF00038BD8369C1F30721194400F50C70032201
:10500000FFF770FF03460028F1D0E1B2012023F83A
:10501000115038BD002070478169032200F50C70E3
:1050200001EBD411FFF75EFF03460028DFD004F048
:105030007F01012043F8215038BD00BF2DE9F04128
:10504000054682B090460F46C1B9C668344604E0B2
:1050500001D0019BA3B1B4420BD0EB6901349C4257
:1050600088BF0224214601AA2846FFF779FF0028BD
:10507000EEDA0026304602B0BDE8F0810E46E5E7E4
:105080006FF0704221462846FFF7A4FF064600282D
:10509000EFD037B9EC603046C8F8004002B0BDE848
:1050A000F081394628462246FFF794FF0028F2D1C6
:1050B000DFE700BF70B5054682B00C4608E0FFF799
:1050C00089FF80B1EB689C4238BFEC60019C5EB107
:1050D00001AA21462846FFF743FF061E21464FF04E
:1050E00000022846EBDA002002B070BDF8B5044695
:1050F00000224FF0FF330120A462C4F83442E06084
:10510000E27184F8242084F83022E362C4F8383253
:105110000D46C1B1042901D90020F8BD04F12406CF
:1051200030461146FFF7DEFE0028F5D000EB0513F0
:1051300093F8AE315B06EFD11B3500EB0515D5F8C2
:10514000065015B9E8E704F1240630460022294646
:10515000FFF7C8FE0028DFD0B0F80B30B3F5007FB2
:10516000DAD1037C022BD7D1C389002BD4D0467B64
:105170002671731E0021012E6371A1710ED00121D1
:105180000A4600E019465200D2B24B1C9642DBB2EE
:1051900003D0092BF6D1A171BEE7A171C38A4BB32D
:1051A0001F462761C6892E44A661B0F811302381BD
:1051B0005A0102F2FF1206EB470303EB622262611F
:1051C0002362B0F8133003B9036AAD1A1D4425FAFF
:1051D00001F140F6F4734A1C9942E2610CD94FF692
:1051E000F473994285BFC36A236210232023E371BD
:1051F0000120F8BD476AD4E70C23E3718CE700BFB8
:10520000034B04481B681840B0FA80F0400970470F
:1052100030100B4001000F00024B186800F0010035
:10522000704700BF24100B40014B1878704700BF37
:10523000741EFF1F4FF47A722C4B02FB00F0984251
:10524000F0B44BD82A4D0822012149000B01B5FBCF
:10525000F3F39842264C3DD2013AF6D1B4FBF1F477
:105260004B081F02A0423DD2214E4B00012200E01C
:105270002346B6FBF3F4A04202F1010503EB01045F
:1052800026D2102D2A46F3D1F0221A4E1A4C184875
:105290001A494FF47A7505FB03F3B0FBF3F333605F
:1052A000236823F008032360206820F47F2323F47D
:1052B0007F6343F460233B431A4322600B681B0760
:1052C000FCD50D4A136843F008031360F0BC704727
:1052D0001201DAE7B4FBF1F4CF01C3E7044C002775
:1052E0000121BFE70B460022CFE700BF4FA9AB006B
:1052F0000095BA0A781EFF1F2C100B4024100B409B
:1053000001207047F8B5054601F0F8FE064F064645
:1053100004E001F0F3FE801BB84203D8A84704461E
:105320000028F6D12046F8BD20A107002DE9F04164
:10533000DFF840800E4FC8F80000054601F0DEFEA1
:10534000064606E001F0DAFE801BB8420AD803F0F8
:1053500039FCA84704460028F4D1C8F800002046CC
:10536000BDE8F0810023C8F800302046BDE8F08198
:1053700020A107003C1EFF1F38B504460F480D460C
:10538000FFF7C0FF08B1002038BD0D4A0D4B156076
:105390000D481C60FFF7B6FF0028F4D10B4A0C4BF8
:1053A00011681960196811601A68D207EBD51B687B
:1053B00013F4702FE7D1012038BD00BF195200004F
:1053C00008100B400C100B400152000030100B4035
:1053D0005C1EFF1F30B5154B85B00D461968FFF7F1
:1053E000CBFF00B3124A134B126800921968019167
:1053F00059680291083305F10F041B6803930023D9
:1054000001E051F8102C03F00301C9000133CA4038
:105410000DF1100E23F003010F2B714404F8012D40
:10542000EFD10023EB7305B030BD00BF481EFF1F56
:1054300010100B4014100B4008B5074B07481968B3
:10544000FFF79AFF30B1064B186880F48070C0F304
:10545000002008BD012008BD481EFF1F00001A0DD6
:1054600010100B40054B186810F0020005D01B68A7
:1054700003481840B0FA80F0400970475C1EFF1FD7
:1054800000007F11F8B5940700D143B91E491F4BA6
:10549000602040F24F1208701A600020F8BD0746E5
:1054A0001B481D460E461446FFF740FF08BB194B2C
:1054B00019491A4A4FF0010E83F800E0184B0860B2
:1054C0001B781460EBB971022B041648164E174C6A
:1054D000174A184D316043F4007303602560164885
:1054E0001760FFF723FF0028D7D1BDE8F840FFF78A
:1054F000B9BF0549054B29204FF4A97208701A60FD
:10550000CBE73146E0E700BF1108FF1F381EFF1F41
:1055100039540000741EFF1F5C1EFF1F00100B405B
:10552000401EFF1F04100B4008100B4038100B40AA
:105530000C100B4002007F112952000030B5930778
:10554000ADF5017D11D0154601236A461048FFF7DD
:1055500099FF044680B1694628464FF4007201F075
:105560000DF920460DF5017D30BD01230848FFF7F8
:1055700089FF04460028F4D10649074B3120002456
:1055800040F25622087020461A600DF5017D30BDAC
:1055900011003A111108FF1F381EFF1F10B59307A5
:1055A000ADF5007D0C4606D0114668464FF40072FA
:1055B00001F0E4F86A46214601230748FFF762FF3D
:1055C00030B90649064B322440F2CE220C701A60E4
:1055D0000DF5007D10BD00BF01003A181108FF1F36
:1055E000381EFF1F2DE9F041940715D00646BBB1C8
:1055F00015460C4601EB030801E0A04510D03168C8
:105600002A460F6830462146B847013405F5007533
:105610000028F2D1BDE8F0810748FFF733FF10B151
:105620000120BDE8F0810549054B31244FF41A7281
:105630000C701A60BDE8F08137003A121108FF1FA4
:10564000381EFF1F2DE9F041940715D00646BBB167
:1056500015460C4601EB030801E0A04510D0316867
:105660002A468F6830462146B847013405F5007553
:105670000028F2D1BDE8F0810748FFF703FF10B121
:105680000120BDE8F0810549054B332440F2DE22BC
:105690000C701A60BDE8F08127003A191108FF1F4D
:1056A000381EFF1FF8B5044619480D46FFF72AFEBD
:1056B00038B11849184B2920EC2208701A600020D4
:1056C000F8BD164F164B174ADFF878E0164E17490B
:1056D0004FF0010C87F800C01860154B1560154F8E
:1056E000154D164ACEF80040154837600D601A6017
:1056F000FFF71CFE18B9FFF7B5FE00B1F8BD05496C
:10570000054B2320F62208701A600020F8BD00BF68
:10571000395400001108FF1F381EFF1F741EFF1FA1
:105720005C1EFF1F00100B4004100B4038100B4094
:105730000C100B404000010002007F1111003A06DE
:105740002952000008100B4010B4074C074A0849C2
:1057500008480023236014680C60096811605DF834
:10576000044B0370704700BF38100B4030100B40E3
:105770005C1EFF1F741EFF1F2DE9F04FAE4DAF489A
:10578000DFF83483AE4FAF4EAF49DFF830E3AF4CB4
:1057900000232B70026888F8003042F040623B70B2
:1057A000337002600A6842F400320A6000F57E300D
:1057B00001F59F4104305C31CEF800300360236076
:1057C0000B6001F5C821A24AC36020314FF0807000
:1057D000136091B00A46086013689E4CD901FBD44F
:1057E0004FF4C870FFF726FDDFF8D4E2DFF8CCC233
:1057F0009648994A994940F24343CCF80030CEF894
:1058000000304FF4886EC0F800E0136002F5C82243
:1058100028320B60C3609249924B9348106060201D
:105820004FF4003208701A60236843F0006323606D
:10583000216811F00061FBD10846FFF79DFD044689
:1058400000284ED00A244FF4D5718848FFF794FD04
:1058500000285DD1013CF6D13378854E002B08BF7E
:105860004FF4401601F04AFC824C814600218248E8
:10587000FFF782FD50B9814A40F2E31143231160E2
:105880002B700024204611B0BDE8F08F31467C48D3
:10589000FFF772FD0028EED001F030FC794B754A1D
:1058A000C9EB00009842E6D82368002BDEDA764B7D
:1058B00011681960136875485A0048BF01234FF0FA
:1058C000000148BF3B70FFF757FD044698B96B4A8B
:1058D00040F2ED112123204611602B7011B0BDE87C
:1058E000F08F664A4FF4E9712023204611602B7037
:1058F00011B0BDE8F08F00216548FFF73DFD04467B
:10590000D0B95E4A4FF4F871222311602B70B9E7C9
:10591000584B1B68B3F5D57F0AD0584A00244FF482
:10592000EC712523204611602B7011B0BDE8F08F7B
:10593000012333704E4E95E74E4B564E1B68564929
:1059400056481B0C1B043360FFF744FD044630B976
:105950004A4A40F2F511262311602B7092E7504914
:105960005048FFF737FD044630B9444A4FF4FC7104
:10597000272311602B7085E731684B48FFF7FCFC4B
:10598000044630B93D4A40F2FB11242311602B70CC
:1059900078E731683848FFF7EFFC38B9374A40F20A
:1059A000FF11402311602B7000246BE702213F4858
:1059B000FFF7E2FC04460028F0D03D4B3D481A6852
:1059C00022F006021A601A684FF0101542F0020227
:1059D0001A60694605606FF07F40FFF763FE18B1FB
:1059E0009DF80D309B076DD446F2A810DFF8CCB0BF
:1059F000DFF8CCA0DFF85490174F184E144D002359
:105A0000CBF80030CAF80030C9F800303B60336092
:105A10002B60FFF70FFC40F243434FF488610122F3
:105A2000CBF80030CAF80030C9F800103B60336092
:105A30002B6088F8002025E71108FF1F00D80040E0
:105A4000401EFF1F341EFF1F3080044008D004405A
:105A500014D004402C100B400CD0044010D0044053
:105A600051E400E008E100E00B007F1100001A089B
:105A70000000304010100B4000001A37381EFF1F86
:105A80000000022920A10700441EFF1F0000090298
:105A900000001A03481EFF1F641EFF1F00000909B3
:105AA0004C1EFF1F0000090A00001B0700001A0619
:105AB00028100B4044100B40601EFF1F00D0044014
:105AC00004D0044069460748FFF7ECFD00288BD05E
:105AD0009DF8103003F00F03012B85D14CF25030AC
